:020000040800F2
:1000000058040020450100080F0D0008BF0C00082F
:100010000D0D0008B1010008D70F00080000000016
:10002000000000000000000000000000330D000888
:10003000B301000800000000310D0008350D000874
:100040005F0100085F0100085F0100085F01000810
:100050005F0100085F0100085F0100085F01000800
:100060005F0100085F0100085F0100085F010008F0
:100070005F0100085F0100085F0100085F010008E0
:100080005F0100085F0100085F0100085F010008D0
:100090005F0100085F0100085F0100085F010008C0
:1000A0005F0100085F0100085F0100085F010008B0
:1000B0005F0100085F0100085F0100085F010008A0
:1000C0005F0100085F0100085F0100085F01000890
:1000D0005F0100085F0100085F0100085F01000880
:1000E0005F0100085F0100085F0100085F01000870
:1000F0005F0100085F0100085F0100085F01000860
:100100005F0100085F0100085F0100085F0100084F
:100110005F0100085F0100085F0100085F0100083F
:100120005F0100085F0100085F0100085F0100082F
:10013000DFF80CD000F02AF8004800470911000849
:10014000580400200648804706480047FEE7FEE7BF
:10015000FEE7FEE7FEE7FEE7FEE7FEE7FEE7FEE777
:10016000BD0D000831010008D2B201E000F8012BFA
:10017000491EFBD270470022F6E710B513460A4627
:1001800004461946FFF7F0FF204610BD064C074D08
:1001900006E0E06840F0010394E807009847103457
:1001A000AC42F6D3FFF7C8FF7411000894110008A1
:1001B000FEE770472DE9F84FDFF8BC91002309F105
:1001C000040A0AF1040B1C464FF00F080BF1040E51
:1001D00001270A68A7403A40BA4272D1DFF89CC1B1
:1001E0004D68A5EB0C0665452BD00DDC032D34D0F6
:1001F00005DC35B3012D19D0022D2FD11BE0112DB7
:1002000016D0122D2AD119E0B6F5881F19D006DCB8
:10021000B6F5803F15D0B6F5801F1FD111E0B6F5B9
:10022000001F0ED0B6F5041F18D10AE0CB6815E008
:10023000CB681B1D12E0CB6808330FE0CB680C3392
:100240000CE08B682BB1012B4FF0080303D0476102
:1002500004E0042302E0076100E00023FF2A01D844
:10026000064601E000F104064FEA840501D9A5F134
:100270002005376808FA05FC27EA0C0703FA05F59C
:1002800047EA050737604D68ED006ED53C4DAE6915
:1002900046F00106AE61AD6924F0030605F00105E4
:1002A0000095384D7719BE68A5072D0F08FA05FC93
:1002B00026EA0C06DFF8D0C0604503D14FF0000CF1
:1002C00025E052E0DFF8C4C0604502D14FF0010CD8
:1002D0001DE0DFF8BCC0604502D14FF0020C16E013
:1002E000DFF8B0C0604502D14FF0030C0FE0DFF83B
:1002F000A8C0604502D14FF0040C08E0DFF89CC0B4
:10030000604502D14FF0050C01E04FF0060C0CFAED
:1003100005FC4CEA060CC7F808C04D68D9F8006027
:10032000ED034D4601D5164300E096432E604D681F
:10033000DAF80060AD03554601D5164300E0964358
:100340002E604D68DBF80060ED025D4601D5164376
:1003500000E096432E604D68DEF80060AD02754601
:1003600001D5164300E096432E60641C102CFFF468
:100370002FAFBDE8F88F000000040140000011100D
:10038000001002400000014000080140000C014044
:10039000001001400014014000180140001C014001
:1003A0000148806870470000000000200248816812
:1003B000027811448160704700000020074810B5A2
:1003C000016841F010010160032000F089F800206D
:1003D00000F006F800F024F8002010BD00200240D4
:1003E00070B50D4D04464FF47A712878B1FBF0F0EA
:1003F0000A490968B1FBF0F000F083FB48B9102C02
:1004000007D200222146501E00F04AF800206C60FE
:1004100070BD012070BD0000000000200C00002015
:100420001D4808B5816941F001018161806900F0D2
:1004300001000090032000F053F8002211466FF0F5
:100440000B0000F02DF8002211466FF00A0000F0BA
:1004500027F8002211466FF0090000F021F8002271
:100460001146501F00F01CF800221146101F00F02A
:1004700017F800221146901E00F012F800221146D3
:10048000501E00F00DF80549486820F0E06040F08B
:100490000070486008BD00000010024000000140EC
:1004A000F0B40E4B1B68C3F30223C3F10704042C02
:1004B00000D904241D1D072D01D2002300E0DB1EFE
:1004C000012606FA04F56D1E0D409D409E40761EE5
:1004D000164045EA0601F0BC00F01ABC0CED00E045
:1004E000064A00F0070110684FF6FF03184040EA83
:1004F0000120034908431060704700000CED00E044
:100500000000FA052DE9F84304460078344FC0078F
:1005100052D0F8690025C00008D4F86940F0805036
:10052000F861F869012500F0805000902D480168BD
:10053000C90511D40168804641F480710160FFF75C
:100540002FFF064604E0FFF72BFF801B642822D80C
:10055000D8F80000C005F6D5386A10F4407020D0F5
:10056000A18801F4407181421BD0386A1E490122E2
:1005700020F440700A6000220A603862C00710D080
:10058000FFF70EFF064641F2883807E0FFF708FF45
:10059000811B414502D90320BDE8F883386A8007F2
:1005A000F4D5386A616820F44070084338621DB1A0
:1005B000F86920F08050F8612078800705D57868C8
:1005C000A16820F44040084378602078C00605D533
:1005D0007868616920F48000084378600020DBE7D8
:1005E0000010024000700040400442422DE9F047F4
:1005F000DFF8348104460E46D8F8000000F007000A
:10060000B0420CD2D8F8001021F007013143C8F8ED
:100610000010D8F8000000F00700B04260D1207848
:10062000424F800705D57868A16820F0F0000843A4
:1006300078602078C00742D06068012816D03968F9
:10064000022816D0890700294ADA796821F00301C7
:1006500001437960FFF7A4FE0546606841F28831E6
:1006600001280ED00228894617D024E03968890372
:10067000E9E78901E7E7FFF793FE411B494501D907
:1006800016E089467868C0F381000128F3D116E0AE
:10069000FFF786FE411B49450AD87868C0F3810000
:1006A0000228F5D10BE0FFF77BFE411B494502D93B
:1006B0000320BDE8F087786810F00C0FF3D1D8F86C
:1006C0000010404601F00701B1420BD9016821F04A
:1006D000070131430160006800F00700B04201D01B
:1006E0000120E6E72078400705D57868E16820F426
:1006F000E060084378602078000706D578682169B3
:1007000020F4605040EAC100786000F03BF879685E
:10071000074AC1F30311515CC84006490860002034
:10072000FFF75EFE0020C4E70020024000100240F8
:100730005C1100080C0000200148006870470000B0
:100740000C0000200448054900684968044AC1F3C8
:100750000221515CC84070470C000020001002408C
:100760006C1100080448054900684968044AC1F34F
:10077000C221515CC84070470C00002000100240AC
:100780006C11000812A085B00FC88DE80F0014A0EE
:10079000144B006804905968134801F00C02042AB5
:1007A00010D0082A0ED1C1F38342C9031DF80200FC
:1007B0000AD5596804AAC1F34041515C0A4A504322
:1007C000B0FBF1F005B0704708494843FAE7000074
:1007D00002030405060708090A0B0C0D0E0F101082
:1007E000010200000010024000127A0000093D00E2
:1007F0002DE9F84F04460078B64DC00747D0686829
:10080000C0F38100012807D06868C0F38100022886
:1008100009D16868C00306D52868800337D56068A9
:1008200000286ED033E06068B0F5803F0BD010B187
:10083000B0F5A02F11D0286820F4803028602868F7
:1008400020F4802002E0286840F48030286060684E
:1008500088B1FFF7A5FD064609E0286840F480202E
:100860002860F0E7FFF79CFD801B642873D8286898
:100870008003F7D50BE0FFF793FD064604E0FFF792
:100880008FFD801B6428F1D828688003F7D4207876
:10089000DFF8448280074FF0010A4FF0000939D594
:1008A000686810F00C0F07D06868C0F38100022858
:1008B00009D16868C00306D42868800713D5206969
:1008C00001281ED10FE02069A8B1C8F800A0FFF7E9
:1008D00067FD064604E0FFF763FD801B0228C5D8CC
:1008E00028688007F7D52868616920F0F80040EA99
:1008F000C10028600EE0C8F80090FFF751FD0646E1
:1009000005E0E5E0FFF74CFD801B022823D82868AE
:100910008007F7D4207800072CD57049A069D8B19A
:10092000C1F800A0FFF73CFD064604E0FFF738FDE4
:10093000801B02280FD8686A8007F7D568484FF4F3
:10094000FA510068B0FBF1F0009000BF0098411E22
:100950000091FAD20EE07CE0C1F80090FFF720FD94
:10096000064604E0FFF71CFD801B022871D8686A68
:100970008007F7D4207840075BD5E8690027C000DE
:1009800008D4E86940F08050E861E869012700F088
:100990008050009053480168C90511D4016883460E
:1009A00041F480710160FFF7FBFC064604E0FFF7AD
:1009B000F7FC801B64284CD8DBF80000C005F6D596
:1009C000E06801280AD008B1052813D0286A20F071
:1009D00001002862286A20F0040002E0286A40F042
:1009E00001002862E06841F2883B88B1FFF7D8FC3B
:1009F000064609E0286A40F004002862EEE7FFF7A7
:100A0000CFFC811B59455BD8286A8007F7D50BE0DE
:100A1000FFF7C6FC064604E0FFF7C2FC811B594500
:100A20004ED8286A8007F7D41FB1E86920F08050BB
:100A3000E861E069A8B36968C1F38101022947D080
:100A40000228484606D0C8F86000FFF7A9FC044613
:100A500039E035E04746C8F86000FFF7A1FC0646DC
:100A600004E0FFF79DFC801B022829D8286880013C
:100A7000F7D4206AB0F5803F05D16868A16820F4FA
:100A8000003008436860D4E908010843696821F42C
:100A9000741108436860C7F860A0FFF781FC044642
:100AA00005E013E0FFF77CFC001B022808D828684B
:100AB0008001F7D50AE0FFF773FC001B022802D97A
:100AC0000320BDE8F88F28688001F4D40020F8E7FF
:100AD0000120F6E70010024000004242800442423A
:100AE0000C000020007000404FF0E021042808694D
:100AF00003D020F004000861704740F00400FAE7DA
:100B0000704710B5401EB0F1807F01D3012010BDA9
:100B10004FF0E02460610F21601700F0F9F8002029
:100B2000A06107202061002010BD10B5FFF7E8FF8D
:100B300010BD70B5040004D094F83900002510B140
:100B400006E0012070BD84F83850204600F022F8FD
:100B5000242084F839002068C16821F40051C16064
:100B6000204600F04FF92068016921F490410161AD
:100B70002068416921F02A0141612068C16841F47F
:100B80000051C160E563202084F8390084F83A0000
:100B9000002070BD30B585B000240094019402940B
:100BA000039400681449884223D11448C16941F470
:100BB0000031C161C16901F400310491816941F0E2
:100BC0000401816180690E4D00F00400049004204E
:100BD0000090022001900320039069462846FFF709
:100BE000E9FA0820CDE90004694628460294FFF797
:100BF000E1FA05B030BD00000044004000100240A2
:100C0000000801402DE9F843044690F83A001E46DA
:100C100017460D46202850D1A5B19FB194F8380051
:100C200001284AD0012084F838004FF00008C4F8A9
:100C30003C80222084F83A00FFF7B2FBA78581466A
:100C4000E78530E00120BDE8F883E08D401EE085B7
:100C5000A0684B46B0F5805F4FF000024FF02001D6
:100C60002046009604D000F085F998B10320EAE709
:100C700000F080F90028F9D1206900282068406838
:100C800003D0C1B225F8011B0DE0C0F3080125F81F
:100C9000021B08E0206900282068406801D000F0AD
:100CA0007F0005F8010BE08D0028CED1202084F8CC
:100CB0003A0084F838800020C5E70220C3E7FEE749
:100CC0000D4810B50B4901604FF4E131416000213E
:100CD00081600C22C160C0E904128161C161FFF72B
:100CE00028FF002805D0BDE810401F2103A000F018
:100CF00073B910BD00440040140000202E2E5C5338
:100D000072635C756172742E63000000FEE77047C9
:100D10000907090E002806DA00F00F0000F1E020B4
:100D200080F8141D704700F1E02080F8001470472F
:100D30007047704710B5FFF739FBBDE81040FFF76B
:100D4000F4BE30B595B001210804CDE900100024AF
:100D5000029402250491CDE907504FF4E010099068
:100D60006846FFF745FD00B1FEE70F20CDE90A0513
:100D70004FF48060CDE90C4002210AA80E94FFF7E1
:100D800035FC00B1FEE74FF4804011900F950FA89D
:100D9000FFF7B8FB00B1FEE7FFF7CEFC4FF47A7126
:100DA000B0FBF1F0FFF7ADFE0420FFF79DFE00223F
:100DB0001146501EFFF774FB15B030BD0D48016899
:100DC00041F00101016041680B4A11404160016836
:100DD0000A4A11400160016821F4802101604168E4
:100DE00021F4FE0141604FF41F0181600449C003FA
:100DF00008607047001002400000FFF8FFFFF6FE99
:100E000008ED00E02DE9F041044600680169E26860
:100E100021F4405111430161A168206901436069D7
:100E200001432068C26841F20C639A430A43C260DE
:100E300020684169A26921F44071114341614C4924
:100E400020686426322788423CD1FFF78BFC00EBF8
:100E5000C00101EB001061688900B0FBF1F5FFF7FC
:100E600081FC00EBC00101EB00106168B84689000D
:100E7000B0FBF1F0B0FBF6F06FF01801484305EB62
:100E8000800107EB0110B0FBF6F000F0F005FFF772
:100E900069FC00EBC00101EB001061688900B0FB48
:100EA000F1F0B0FBF6F005EB0015FFF75BFC00EB93
:100EB000C00101EB001061688900B0FBF1F7FFF79A
:100EC00051FC3BE0FFF73EFC00EBC00101EB0010E2
:100ED00061688900B0FBF1F5FFF734FC00EBC0015D
:100EE00001EB00106168B8468900B0FBF1F0B0FB7F
:100EF000F6F06FF01801484305EB800107EB011095
:100F0000B0FBF6F000F0F005FFF71CFC00EBC001B1
:100F100001EB001061688900B0FBF1F0B0FBF6F066
:100F200005EB0015FFF70EFC00EBC00101EB001014
:100F300061688900B0FBF1F7FFF704FC00EBC0012A
:100F400001EB001061688900B0FBF1F0B0FBF6F036
:100F50006FF01801484307EB800108EB0110B0FB6C
:100F6000F6F0216800F00F0028448860BDE8F081A9
:100F7000003801402DE9F0411E46174688460446D8
:100F8000069D1CE0681C1AD025B1FFF709FA801BEA
:100F9000A84214D92068C16821F4D071C1602068CA
:100FA000416921F001014161202084F8390084F871
:100FB0003A00002084F838000320BDE8F081206862
:100FC000016838EA010004D00020B842DAD00020DD
:100FD000F3E70120F9E7FEE7FEE700000FB4054B59
:100FE00010B503A9044A029800F017F810BC5DF888
:100FF00014FB0000F11000081000002002E008C8F7
:10100000121F08C1002AFAD170477047002001E082
:1010100001C1121F002AFBD170472DE9F84F9946F4
:10102000924688460546002706E025280AD0514604
:101030004A4690476D1C7F1C28780028F5D1384619
:10104000BDE8F88F002315F8011F18462E2915D189
:1010500015F8011F04232A290DD06FF02F022978DB
:10106000A1F13004092C09D800EB800002EB40000C
:1010700008446D1CF3E758F8040B6D1C2A78002A0D
:10108000DDD0632A07D0732A0FD0104651464A4656
:1010900090477F1C2AE018F8042B8DF800200021CF
:1010A0008DF801106E46012103E058F8046B4FF0F3
:1010B000FF315A074FF0000401D409E0641C844258
:1010C0000BDA8C42FADB325D002AF7D105E0641CB2
:1010D0008C42FCDB305D0028F9D1274404E016F88F
:1010E000010B51464A469047641EF8D26D1CA3E797
:1010F00004490A685206FCD5024AC1B2121D1160A9
:1011000070470000004400409AB0FFF757F9FFF71E
:1011100018FEFFF7D5FD0BA0FFF760FF64216846BE
:10112000FFF729F86423632269460848FFF76AFD40
:101130009DF800000028F1D0694605A0FFF74EFF9A
:10114000ECE70000746573740A00000014000020CE
:10115000726563653A2025730A00000000000000F4
:101160000000000001020304060708090000000057
:101170000102030494110008000000201400000084
:10118000FC0F0008A811000814000020440400000F
:101190000C1000080100000010000000000000001A
:0811A00000A24A040000000057
:0400000508000131BD
:00000001FF
